:1000000012C024C023C022C021C020C01FC01EC0F7
:100010001DC01CC01BC01AC019C018C017C016C014
:1000200015C014C013C011241FBECFE5D4E0DEBF3D
:10003000CDBF10E0A0E6B0E0EEECF0E002C005902D
:100040000D92A836B107D9F716D03FC0D9CFAB0172
:10005000BC01411551056105710561F080E090E03A
:10006000DC0100000196A11DB11D481759076A0760
:100070007B07B9F70895A0E6B0E0ED91FC911197E8
:1000800016968C911697282F209590819223892B74
:100090008083ED01EA81FB812E81822F8095908102
:1000A0008923822B808360E573EC80E090E0CFDFD2
:1000B000EA81FB818E81809590818923808360E233
:0E00C0007EE480E090E0C3DFE5CFF894FFCF50
:0800CE00370038003600040081
:00000001FF
